{
  "_format": "hh-sol-artifact-1",
  "contractName": "FlickFrenzy",
  "sourceName": "contracts/FlickFrenzy.sol",
  "abi": [
    {
      "inputs": [],
      "stateMutability": "nonpayable",
      "type": "constructor"
    },
    {
      "inputs": [
        {
          "internalType": "string",
          "name": "message",
          "type": "string"
        }
      ],
      "name": "FrenzyNotInactive",
      "type": "error"
    },
    {
      "anonymous": false,
      "inputs": [
        {
          "indexed": false,
          "internalType": "string",
          "name": "frenzyName",
          "type": "string"
        },
        {
          "indexed": false,
          "internalType": "string[3]",
          "name": "frenzyOptions",
          "type": "string[3]"
        },
        {
          "indexed": false,
          "internalType": "string",
          "name": "winner",
          "type": "string"
        }
      ],
      "name": "FrenzyCompleted",
      "type": "event"
    },
    {
      "anonymous": false,
      "inputs": [
        {
          "indexed": false,
          "internalType": "string",
          "name": "frenzyName",
          "type": "string"
        },
        {
          "indexed": false,
          "internalType": "string",
          "name": "message",
          "type": "string"
        }
      ],
      "name": "NewFrenzyStarted",
      "type": "event"
    },
    {
      "stateMutability": "nonpayable",
      "type": "fallback"
    },
    {
      "inputs": [
        {
          "internalType": "uint256",
          "name": "_frenzyId",
          "type": "uint256"
        }
      ],
      "name": "checkFrenzy",
      "outputs": [],
      "stateMutability": "nonpayable",
      "type": "function"
    },
    {
      "inputs": [
        {
          "internalType": "string",
          "name": "_frenzyName",
          "type": "string"
        },
        {
          "internalType": "string[3]",
          "name": "_options",
          "type": "string[3]"
        }
      ],
      "name": "createFrenzy",
      "outputs": [
        {
          "internalType": "uint256",
          "name": "",
          "type": "uint256"
        }
      ],
      "stateMutability": "nonpayable",
      "type": "function"
    },
    {
      "inputs": [
        {
          "internalType": "uint256",
          "name": "",
          "type": "uint256"
        }
      ],
      "name": "frenzies",
      "outputs": [
        {
          "internalType": "address",
          "name": "creator",
          "type": "address"
        },
        {
          "internalType": "uint8",
          "name": "frenzyId",
          "type": "uint8"
        },
        {
          "internalType": "string",
          "name": "frenzyName",
          "type": "string"
        },
        {
          "internalType": "uint256",
          "name": "duration",
          "type": "uint256"
        },
        {
          "internalType": "uint256",
          "name": "startTime",
          "type": "uint256"
        },
        {
          "internalType": "enum FlickFrenzy.Status",
          "name": "status",
          "type": "uint8"
        }
      ],
      "stateMutability": "view",
      "type": "function"
    },
    {
      "inputs": [],
      "name": "frenzyCount",
      "outputs": [
        {
          "internalType": "uint256",
          "name": "",
          "type": "uint256"
        }
      ],
      "stateMutability": "view",
      "type": "function"
    },
    {
      "inputs": [],
      "name": "getFrenzies",
      "outputs": [
        {
          "components": [
            {
              "internalType": "uint8",
              "name": "frenzyId",
              "type": "uint8"
            },
            {
              "internalType": "string",
              "name": "frenzyName",
              "type": "string"
            },
            {
              "internalType": "string[3]",
              "name": "options",
              "type": "string[3]"
            }
          ],
          "internalType": "struct FlickFrenzy.ActiveFrenzy[]",
          "name": "",
          "type": "tuple[]"
        }
      ],
      "stateMutability": "view",
      "type": "function"
    },
    {
      "inputs": [
        {
          "internalType": "uint256",
          "name": "_frenzyId",
          "type": "uint256"
        }
      ],
      "name": "getFrenzyOptions",
      "outputs": [
        {
          "internalType": "string[3]",
          "name": "",
          "type": "string[3]"
        }
      ],
      "stateMutability": "view",
      "type": "function"
    },
    {
      "inputs": [
        {
          "internalType": "uint256",
          "name": "_frenzyId",
          "type": "uint256"
        },
        {
          "internalType": "uint256",
          "name": "_duration",
          "type": "uint256"
        }
      ],
      "name": "startFrenzy",
      "outputs": [],
      "stateMutability": "nonpayable",
      "type": "function"
    },
    {
      "inputs": [
        {
          "internalType": "uint256",
          "name": "_frenzyId",
          "type": "uint256"
        },
        {
          "internalType": "uint256",
          "name": "_options",
          "type": "uint256"
        }
      ],
      "name": "vote",
      "outputs": [],
      "stateMutability": "nonpayable",
      "type": "function"
    },
    {
      "stateMutability": "payable",
      "type": "receive"
    }
  ],
  "bytecode": "0x60806040523480156200001157600080fd5b50600067ffffffffffffffff81111562000030576200002f620000ef565b5b6040519080825280602002602001820160405280156200005f5781602001602082028036833780820191505090505b5060019080519060200190620000779291906200007e565b506200011e565b828054828255906000526020600020908101928215620000bd579160200282015b82811115620000bc5782518255916020019190600101906200009f565b5b509050620000cc9190620000d0565b5090565b5b80821115620000eb576000816000905550600101620000d1565b5090565b7f4e487b7100000000000000000000000000000000000000000000000000000000600052604160045260246000fd5b6126d0806200012e6000396000f3fe60806040526004361061007f5760003560e01c8063b1045fe71161004e578063b1045fe7146101da578063b384abef14610203578063c801559a1461022c578063ee89211d14610257576100bf565b8063150d65921461010757806339e9d1b31461014957806345726fce14610174578063949c29f7146101b1576100bf565b366100bf576040517f08c379a00000000000000000000000000000000000000000000000000000000081526004016100b6906111d2565b60405180910390fd5b3480156100cb57600080fd5b506040517f08c379a00000000000000000000000000000000000000000000000000000000081526004016100fe90611264565b60405180910390fd5b34801561011357600080fd5b5061012e600480360381019061012991906112ce565b610294565b6040516101409695949392919061145d565b60405180910390f35b34801561015557600080fd5b5061015e610392565b60405161016b91906114c5565b60405180910390f35b34801561018057600080fd5b5061019b600480360381019061019691906116e9565b610398565b6040516101a891906114c5565b60405180910390f35b3480156101bd57600080fd5b506101d860048036038101906101d39190611761565b610532565b005b3480156101e657600080fd5b5061020160048036038101906101fc91906112ce565b610786565b005b34801561020f57600080fd5b5061022a60048036038101906102259190611761565b610a72565b005b34801561023857600080fd5b50610241610c86565b60405161024e91906119c9565b60405180910390f35b34801561026357600080fd5b5061027e600480360381019061027991906112ce565b610f75565b60405161028b9190611a6b565b60405180910390f35b60006020528060005260406000206000915090508060000160009054906101000a900473ffffffffffffffffffffffffffffffffffffffff16908060000160149054906101000a900460ff16908060010180546102f090611abc565b80601f016020809104026020016040519081016040528092919081815260200182805461031c90611abc565b80156103695780601f1061033e57610100808354040283529160200191610369565b820191906000526020600020905b81548152906001019060200180831161034c57829003601f168201915b50505050509080600501549080600601549080600b0160009054906101000a900460ff16905086565b60025481565b600080600190505b600254811161042e5783805190602001206000808381526020019081526020016000206001016040516103d39190611b90565b60405180910390200361041b576040517f08c379a000000000000000000000000000000000000000000000000000000000815260040161041290611bf3565b60405180910390fd5b808061042690611c42565b9150506103a0565b506002600081548092919061044290611c42565b9190505550600080600060025481526020019081526020016000209050338160000160006101000a81548173ffffffffffffffffffffffffffffffffffffffff021916908373ffffffffffffffffffffffffffffffffffffffff1602179055506002548160000160146101000a81548160ff021916908360ff160217905550838160010190816104d29190611e36565b5082816002019060036104e6929190611057565b50600081600b0160006101000a81548160ff0219169083600281111561050f5761050e6113e6565b5b02179055508060000160149054906101000a900460ff1660ff1691505092915050565b816000806002811115610548576105476113e6565b5b600080848152602001908152602001600020600b0160009054906101000a900460ff16600281111561057d5761057c6113e6565b5b146105bd576040517f08c379a00000000000000000000000000000000000000000000000000000000081526004016105b490611f7a565b60405180910390fd5b600080600086815260200190815260200160002090503373ffffffffffffffffffffffffffffffffffffffff168160000160009054906101000a900473ffffffffffffffffffffffffffffffffffffffff1673ffffffffffffffffffffffffffffffffffffffff1614610665576040517f08c379a000000000000000000000000000000000000000000000000000000000815260040161065c9061200c565b60405180910390fd5b60006002811115610679576106786113e6565b5b81600b0160009054906101000a900460ff16600281111561069d5761069c6113e6565b5b146106dd576040517f996b5ab30000000000000000000000000000000000000000000000000000000081526004016106d49061209e565b60405180910390fd5b838160050181905550428160060181905550600181600b0160006101000a81548160ff02191690836002811115610717576107166113e6565b5b021790555060018590806001815401808255809150506001900390600052602060002001600090919091909150557f1cd7ff693940cbb10cb432a3772f5ad13b6d8befb9dd7da587c749c0a592368b81600101604051610777919061218e565b60405180910390a15050505050565b60008060008381526020019081526020016000209050600160028111156107b0576107af6113e6565b5b81600b0160009054906101000a900460ff1660028111156107d4576107d36113e6565b5b14610814576040517f08c379a000000000000000000000000000000000000000000000000000000000815260040161080b9061220f565b60405180910390fd5b80600501548160060154610828919061222f565b42101561086a576040517f08c379a0000000000000000000000000000000000000000000000000000000008152600401610861906122af565b60405180910390fd5b600081600701600060038110610883576108826122cf565b5b01549050600080600190505b60038110156108e257828460070182600381106108af576108ae6122cf565b5b015411156108d5578360070181600381106108cd576108cc6122cf565b5b015492508091505b808060010191505061088f565b50600283600b0160006101000a81548160ff0219169083600281111561090b5761090a6113e6565b5b021790555060005b6001805490508110156109cf578460018281548110610935576109346122cf565b5b9060005260206000200154036109c257600180808054905061095791906122fe565b81548110610968576109676122cf565b5b906000526020600020015460018281548110610987576109866122cf565b5b906000526020600020018190555060018054806109a7576109a6612332565b5b600190038181906000526020600020016000905590556109cf565b8080600101915050610913565b506002808111156109e3576109e26113e6565b5b83600b0160009054906101000a900460ff166002811115610a0757610a066113e6565b5b14610a1557610a14612361565b5b7f34f9698511f95a1a49a251c01d57334fb17238e10637c21c32315bf727e7cd8d8360010184600201856002018460038110610a5457610a536122cf565b5b01604051610a64939291906124be565b60405180910390a150505050565b6000806000848152602001908152602001600020905060016002811115610a9c57610a9b6113e6565b5b600080858152602001908152602001600020600b0160009054906101000a900460ff166002811115610ad157610ad06113e6565b5b14610b11576040517f08c379a0000000000000000000000000000000000000000000000000000000008152600401610b089061220f565b60405180910390fd5b60038210610b54576040517f08c379a0000000000000000000000000000000000000000000000000000000008152600401610b4b9061257c565b60405180910390fd5b60001515600080858152602001908152602001600020600a0160003373ffffffffffffffffffffffffffffffffffffffff1673ffffffffffffffffffffffffffffffffffffffff16815260200190815260200160002060009054906101000a900460ff16151514610bfa576040517f08c379a0000000000000000000000000000000000000000000000000000000008152600401610bf19061260e565b60405180910390fd5b806007018260038110610c1057610c0f6122cf565b5b016000815480929190610c2290611c42565b9190505550600181600a0160003373ffffffffffffffffffffffffffffffffffffffff1673ffffffffffffffffffffffffffffffffffffffff16815260200190815260200160002060006101000a81548160ff021916908315150217905550505050565b60606000600180549050905060008167ffffffffffffffff811115610cae57610cad6114ea565b5b604051908082528060200260200182016040528015610ce757816020015b610cd46110a3565b815260200190600190039081610ccc5790505b50905060008211610d2d576040517f08c379a0000000000000000000000000000000000000000000000000000000008152600401610d249061267a565b60405180910390fd5b60005b82811015610f6c57604051806060016040528060008060018581548110610d5a57610d596122cf565b5b9060005260206000200154815260200190815260200160002060000160149054906101000a900460ff1660ff16815260200160008060018581548110610da357610da26122cf565b5b906000526020600020015481526020019081526020016000206001018054610dca90611abc565b80601f0160208091040260200160405190810160405280929190818152602001828054610df690611abc565b8015610e435780601f10610e1857610100808354040283529160200191610e43565b820191906000526020600020905b815481529060010190602001808311610e2657829003601f168201915b5050505050815260200160008060018581548110610e6457610e636122cf565b5b90600052602060002001548152602001908152602001600020600201600380602002604051908101604052809291906000905b82821015610f3a578382018054610ead90611abc565b80601f0160208091040260200160405190810160405280929190818152602001828054610ed990611abc565b8015610f265780601f10610efb57610100808354040283529160200191610f26565b820191906000526020600020905b815481529060010190602001808311610f0957829003601f168201915b505050505081526020019060010190610e97565b50505050815250828281518110610f5457610f536122cf565b5b60200260200101819052508080600101915050610d30565b50809250505090565b610f7d6110cd565b600080838152602001908152602001600020600201600380602002604051908101604052809291906000905b8282101561104c578382018054610fbf90611abc565b80601f0160208091040260200160405190810160405280929190818152602001828054610feb90611abc565b80156110385780601f1061100d57610100808354040283529160200191611038565b820191906000526020600020905b81548152906001019060200180831161101b57829003601f168201915b505050505081526020019060010190610fa9565b505050509050919050565b8260038101928215611092579160200282015b828111156110915782518290816110819190611e36565b509160200191906001019061106a565b5b50905061109f91906110f4565b5090565b6040518060600160405280600060ff168152602001606081526020016110c76110cd565b81525090565b60405180606001604052806003905b60608152602001906001900390816110dc5790505090565b5b80821115611114576000818161110b9190611118565b506001016110f5565b5090565b50805461112490611abc565b6000825580601f106111365750611155565b601f0160209004906000526020600020908101906111549190611158565b5b50565b5b80821115611171576000816000905550600101611159565b5090565b600082825260208201905092915050565b7f436f6e747261637420646f6573206e6f74206163636570742045746865722e00600082015250565b60006111bc601f83611175565b91506111c782611186565b602082019050919050565b600060208201905081810360008301526111eb816111af565b9050919050565b7f46756e6374696f6e20646f6573206e6f74206578697374206f7220776173206360008201527f616c6c656420696e636f72726563746c792e0000000000000000000000000000602082015250565b600061124e603283611175565b9150611259826111f2565b604082019050919050565b6000602082019050818103600083015261127d81611241565b9050919050565b6000604051905090565b600080fd5b600080fd5b6000819050919050565b6112ab81611298565b81146112b657600080fd5b50565b6000813590506112c8816112a2565b92915050565b6000602082840312156112e4576112e361128e565b5b60006112f2848285016112b9565b91505092915050565b600073ffffffffffffffffffffffffffffffffffffffff82169050919050565b6000611326826112fb565b9050919050565b6113368161131b565b82525050565b600060ff82169050919050565b6113528161133c565b82525050565b600081519050919050565b60005b83811015611381578082015181840152602081019050611366565b60008484015250505050565b6000601f19601f8301169050919050565b60006113a982611358565b6113b38185611175565b93506113c3818560208601611363565b6113cc8161138d565b840191505092915050565b6113e081611298565b82525050565b7f4e487b7100000000000000000000000000000000000000000000000000000000600052602160045260246000fd5b60038110611426576114256113e6565b5b50565b600081905061143782611415565b919050565b600061144782611429565b9050919050565b6114578161143c565b82525050565b600060c082019050611472600083018961132d565b61147f6020830188611349565b8181036040830152611491818761139e565b90506114a060608301866113d7565b6114ad60808301856113d7565b6114ba60a083018461144e565b979650505050505050565b60006020820190506114da60008301846113d7565b92915050565b600080fd5b600080fd5b7f4e487b7100000000000000000000000000000000000000000000000000000000600052604160045260246000fd5b6115228261138d565b810181811067ffffffffffffffff82111715611541576115406114ea565b5b80604052505050565b6000611554611284565b90506115608282611519565b919050565b600067ffffffffffffffff8211156115805761157f6114ea565b5b6115898261138d565b9050602081019050919050565b82818337600083830152505050565b60006115b86115b384611565565b61154a565b9050828152602081018484840111156115d4576115d36114e5565b5b6115df848285611596565b509392505050565b600082601f8301126115fc576115fb6114e0565b5b813561160c8482602086016115a5565b91505092915050565b600067ffffffffffffffff8211156116305761162f6114ea565b5b602082029050919050565b600080fd5b600061165361164e84611615565b61154a565b9050806020840283018581111561166d5761166c61163b565b5b835b818110156116b457803567ffffffffffffffff811115611692576116916114e0565b5b80860161169f89826115e7565b8552602085019450505060208101905061166f565b5050509392505050565b600082601f8301126116d3576116d26114e0565b5b60036116e0848285611640565b91505092915050565b60008060408385031215611700576116ff61128e565b5b600083013567ffffffffffffffff81111561171e5761171d611293565b5b61172a858286016115e7565b925050602083013567ffffffffffffffff81111561174b5761174a611293565b5b611757858286016116be565b9150509250929050565b600080604083850312156117785761177761128e565b5b6000611786858286016112b9565b9250506020611797858286016112b9565b9150509250929050565b600081519050919050565b600082825260208201905092915050565b6000819050602082019050919050565b6117d68161133c565b82525050565b600082825260208201905092915050565b60006117f882611358565b61180281856117dc565b9350611812818560208601611363565b61181b8161138d565b840191505092915050565b600060039050919050565b600081905092915050565b6000819050919050565b600061185283836117ed565b905092915050565b6000602082019050919050565b600061187282611826565b61187c8185611831565b93508360208202850161188e8561183c565b8060005b858110156118ca57848403895281516118ab8582611846565b94506118b68361185a565b925060208a01995050600181019050611892565b50829750879550505050505092915050565b60006060830160008301516118f460008601826117cd565b506020830151848203602086015261190c82826117ed565b915050604083015184820360408601526119268282611867565b9150508091505092915050565b600061193f83836118dc565b905092915050565b6000602082019050919050565b600061195f826117a1565b61196981856117ac565b93508360208202850161197b856117bd565b8060005b858110156119b757848403895281516119988582611933565b94506119a383611947565b925060208a0199505060018101905061197f565b50829750879550505050505092915050565b600060208201905081810360008301526119e38184611954565b905092915050565b600081905092915050565b6000611a0182611826565b611a0b81856119eb565b935083602082028501611a1d8561183c565b8060005b85811015611a595784840389528151611a3a8582611846565b9450611a458361185a565b925060208a01995050600181019050611a21565b50829750879550505050505092915050565b60006020820190508181036000830152611a8581846119f6565b905092915050565b7f4e487b7100000000000000000000000000000000000000000000000000000000600052602260045260246000fd5b60006002820490506001821680611ad457607f821691505b602082108103611ae757611ae6611a8d565b5b50919050565b600081905092915050565b60008190508160005260206000209050919050565b60008154611b1a81611abc565b611b248186611aed565b94506001821660008114611b3f5760018114611b5457611b87565b60ff1983168652811515820286019350611b87565b611b5d85611af8565b60005b83811015611b7f57815481890152600182019150602081019050611b60565b838801955050505b50505092915050565b6000611b9c8284611b0d565b915081905092915050565b7f4672656e7a79206e616d6520616c726561647920657869737473000000000000600082015250565b6000611bdd601a83611175565b9150611be882611ba7565b602082019050919050565b60006020820190508181036000830152611c0c81611bd0565b9050919050565b7f4e487b7100000000000000000000000000000000000000000000000000000000600052601160045260246000fd5b6000611c4d82611298565b91507fffffffffffffffffffffffffffffffffffffffffffffffffffffffffffffffff8203611c7f57611c7e611c13565b5b600182019050919050565b60008190508160005260206000209050919050565b60006020601f8301049050919050565b600082821b905092915050565b600060088302611cec7fffffffffffffffffffffffffffffffffffffffffffffffffffffffffffffffff82611caf565b611cf68683611caf565b95508019841693508086168417925050509392505050565b6000819050919050565b6000611d33611d2e611d2984611298565b611d0e565b611298565b9050919050565b6000819050919050565b611d4d83611d18565b611d61611d5982611d3a565b848454611cbc565b825550505050565b600090565b611d76611d69565b611d81818484611d44565b505050565b5b81811015611da557611d9a600082611d6e565b600181019050611d87565b5050565b601f821115611dea57611dbb81611c8a565b611dc484611c9f565b81016020851015611dd3578190505b611de7611ddf85611c9f565b830182611d86565b50505b505050565b600082821c905092915050565b6000611e0d60001984600802611def565b1980831691505092915050565b6000611e268383611dfc565b9150826002028217905092915050565b611e3f82611358565b67ffffffffffffffff811115611e5857611e576114ea565b5b611e628254611abc565b611e6d828285611da9565b600060209050601f831160018114611ea05760008415611e8e578287015190505b611e988582611e1a565b865550611f00565b601f198416611eae86611c8a565b60005b82811015611ed657848901518255600182019150602085019450602081019050611eb1565b86831015611ef35784890151611eef601f891682611dfc565b8355505b6001600288020188555050505b505050505050565b7f4672656e7a79206973206e6f7420696e2074686520726571756972656420737460008201527f617475732e000000000000000000000000000000000000000000000000000000602082015250565b6000611f64602583611175565b9150611f6f82611f08565b604082019050919050565b60006020820190508181036000830152611f9381611f57565b9050919050565b7f4f6e6c79207468652063726561746f722063616e20737461727420746865206660008201527f72656e7a79000000000000000000000000000000000000000000000000000000602082015250565b6000611ff6602583611175565b915061200182611f9a565b604082019050919050565b6000602082019050818103600083015261202581611fe9565b9050919050565b7f4672656e7a79206973206e6f7420696e6163746976652c2063616e6e6f74207360008201527f746172742e000000000000000000000000000000000000000000000000000000602082015250565b6000612088602583611175565b91506120938261202c565b604082019050919050565b600060208201905081810360008301526120b78161207b565b9050919050565b600081546120cb81611abc565b6120d58186611175565b945060018216600081146120f0576001811461210657612139565b60ff198316865281151560200286019350612139565b61210f85611c8a565b60005b8381101561213157815481890152600182019150602081019050612112565b808801955050505b50505092915050565b7f41206e6577204672656e7a792068617320737461727465640000000000000000600082015250565b6000612178601883611175565b915061218382612142565b602082019050919050565b600060408201905081810360008301526121a881846120be565b905081810360208301526121bb8161216b565b905092915050565b7f4672656e7a79206973206e6f74206163746976652e0000000000000000000000600082015250565b60006121f9601583611175565b9150612204826121c3565b602082019050919050565b60006020820190508181036000830152612228816121ec565b9050919050565b600061223a82611298565b915061224583611298565b925082820190508082111561225d5761225c611c13565b5b92915050565b7f4672656e7a79206973207374696c6c206163746976652e000000000000000000600082015250565b6000612299601783611175565b91506122a482612263565b602082019050919050565b600060208201905081810360008301526122c88161228c565b9050919050565b7f4e487b7100000000000000000000000000000000000000000000000000000000600052603260045260246000fd5b600061230982611298565b915061231483611298565b925082820390508181111561232c5761232b611c13565b5b92915050565b7f4e487b7100000000000000000000000000000000000000000000000000000000600052603160045260246000fd5b7f4e487b7100000000000000000000000000000000000000000000000000000000600052600160045260246000fd5b600060039050919050565b6000819050919050565b600081546123b281611abc565b6123bc81866117dc565b945060018216600081146123d757600181146123ed57612420565b60ff198316865281151560200286019350612420565b6123f685611c8a565b60005b83811015612418578154818901526001820191506020810190506123f9565b808801955050505b50505092915050565b600061243583836123a5565b905092915050565b6000600182019050919050565b600061245582612390565b61245f81856119eb565b9350836020820285016124718561239b565b8060005b858110156124ac5784840389528161248d8582612429565b94506124988361243d565b925060208a01995050600181019050612475565b50829750879550505050505092915050565b600060608201905081810360008301526124d881866120be565b905081810360208301526124ec818561244a565b9050818103604083015261250081846120be565b9050949350505050565b7f496e76616c6964206f7074696f6e2c206d75737420626520302c20312c206f7260008201527f20322e0000000000000000000000000000000000000000000000000000000000602082015250565b6000612566602383611175565b91506125718261250a565b604082019050919050565b6000602082019050818103600083015261259581612559565b9050919050565b7f596f752063616e206f6e6c7920766f7465206f6e652074696d6520706572204660008201527f72656e7a792e0000000000000000000000000000000000000000000000000000602082015250565b60006125f8602683611175565b91506126038261259c565b604082019050919050565b60006020820190508181036000830152612627816125eb565b9050919050565b7f4e6f20616374697665204672656e7a6965730000000000000000000000000000600082015250565b6000612664601283611175565b915061266f8261262e565b602082019050919050565b6000602082019050818103600083015261269381612657565b905091905056fea26469706673582212208bd13a3c09e90900543da85972055beca50637b6325fb9f81f453efc0279f14864736f6c63430008180033",
  "linkReferences": {},
  "deployedLinkReferences": {}
}